{
  "contractName": "CAMM",
  "abi": [
    {
      "inputs": [
        {
          "internalType": "address",
          "name": "_token0",
          "type": "address"
        },
        {
          "internalType": "address",
          "name": "_token1",
          "type": "address"
        }
      ],
      "stateMutability": "nonpayable",
      "type": "constructor"
    },
    {
      "anonymous": false,
      "inputs": [
        {
          "indexed": false,
          "internalType": "string",
          "name": "",
          "type": "string"
        },
        {
          "indexed": false,
          "internalType": "uint256",
          "name": "",
          "type": "uint256"
        }
      ],
      "name": "output",
      "type": "event"
    },
    {
      "inputs": [
        {
          "internalType": "address",
          "name": "",
          "type": "address"
        }
      ],
      "name": "balanceOf",
      "outputs": [
        {
          "internalType": "uint256",
          "name": "",
          "type": "uint256"
        }
      ],
      "stateMutability": "view",
      "type": "function",
      "constant": true
    },
    {
      "inputs": [],
      "name": "token0",
      "outputs": [
        {
          "internalType": "contract IERC20",
          "name": "",
          "type": "address"
        }
      ],
      "stateMutability": "view",
      "type": "function",
      "constant": true
    },
    {
      "inputs": [],
      "name": "token1",
      "outputs": [
        {
          "internalType": "contract IERC20",
          "name": "",
          "type": "address"
        }
      ],
      "stateMutability": "view",
      "type": "function",
      "constant": true
    },
    {
      "inputs": [],
      "name": "totalSupply",
      "outputs": [
        {
          "internalType": "uint256",
          "name": "",
          "type": "uint256"
        }
      ],
      "stateMutability": "view",
      "type": "function",
      "constant": true
    },
    {
      "inputs": [
        {
          "internalType": "address",
          "name": "_tokenIn",
          "type": "address"
        },
        {
          "internalType": "uint256",
          "name": "_amountIn",
          "type": "uint256"
        }
      ],
      "name": "exchange_rate",
      "outputs": [
        {
          "internalType": "uint256",
          "name": "BigamountOut",
          "type": "uint256"
        }
      ],
      "stateMutability": "view",
      "type": "function",
      "constant": true
    },
    {
      "inputs": [],
      "name": "getpopularity",
      "outputs": [
        {
          "internalType": "uint256",
          "name": "",
          "type": "uint256"
        }
      ],
      "stateMutability": "view",
      "type": "function",
      "constant": true
    },
    {
      "inputs": [],
      "name": "getToken0",
      "outputs": [
        {
          "internalType": "contract IERC20",
          "name": "",
          "type": "address"
        }
      ],
      "stateMutability": "view",
      "type": "function",
      "constant": true
    },
    {
      "inputs": [],
      "name": "getToken1",
      "outputs": [
        {
          "internalType": "contract IERC20",
          "name": "",
          "type": "address"
        }
      ],
      "stateMutability": "view",
      "type": "function",
      "constant": true
    },
    {
      "inputs": [],
      "name": "getoperator",
      "outputs": [
        {
          "internalType": "address",
          "name": "",
          "type": "address"
        }
      ],
      "stateMutability": "view",
      "type": "function",
      "constant": true
    },
    {
      "inputs": [],
      "name": "getProtocoladdr",
      "outputs": [
        {
          "internalType": "address",
          "name": "",
          "type": "address"
        }
      ],
      "stateMutability": "view",
      "type": "function",
      "constant": true
    },
    {
      "inputs": [
        {
          "internalType": "address",
          "name": "addr",
          "type": "address"
        }
      ],
      "name": "getProtocoladdrBalance",
      "outputs": [
        {
          "internalType": "uint256",
          "name": "",
          "type": "uint256"
        }
      ],
      "stateMutability": "view",
      "type": "function",
      "constant": true
    },
    {
      "inputs": [
        {
          "internalType": "address",
          "name": "owner",
          "type": "address"
        },
        {
          "internalType": "address",
          "name": "spender",
          "type": "address"
        }
      ],
      "name": "getApproveToken0",
      "outputs": [
        {
          "internalType": "uint256",
          "name": "",
          "type": "uint256"
        }
      ],
      "stateMutability": "view",
      "type": "function",
      "constant": true
    },
    {
      "inputs": [
        {
          "internalType": "address",
          "name": "owner",
          "type": "address"
        },
        {
          "internalType": "address",
          "name": "spender",
          "type": "address"
        }
      ],
      "name": "getApproveToken1",
      "outputs": [
        {
          "internalType": "uint256",
          "name": "",
          "type": "uint256"
        }
      ],
      "stateMutability": "view",
      "type": "function",
      "constant": true
    },
    {
      "inputs": [],
      "name": "getreserveIn",
      "outputs": [
        {
          "internalType": "uint256",
          "name": "",
          "type": "uint256"
        }
      ],
      "stateMutability": "view",
      "type": "function",
      "constant": true
    },
    {
      "inputs": [],
      "name": "getreserveOut",
      "outputs": [
        {
          "internalType": "uint256",
          "name": "",
          "type": "uint256"
        }
      ],
      "stateMutability": "view",
      "type": "function",
      "constant": true
    },
    {
      "inputs": [],
      "name": "getlastamountIn",
      "outputs": [
        {
          "internalType": "uint256",
          "name": "",
          "type": "uint256"
        }
      ],
      "stateMutability": "view",
      "type": "function",
      "constant": true
    },
    {
      "inputs": [],
      "name": "getlastdy",
      "outputs": [
        {
          "internalType": "uint256",
          "name": "",
          "type": "uint256"
        }
      ],
      "stateMutability": "view",
      "type": "function",
      "constant": true
    },
    {
      "inputs": [],
      "name": "getlasty0",
      "outputs": [
        {
          "internalType": "uint256",
          "name": "",
          "type": "uint256"
        }
      ],
      "stateMutability": "view",
      "type": "function",
      "constant": true
    },
    {
      "inputs": [],
      "name": "getlasty1",
      "outputs": [
        {
          "internalType": "uint256",
          "name": "",
          "type": "uint256"
        }
      ],
      "stateMutability": "view",
      "type": "function",
      "constant": true
    },
    {
      "inputs": [
        {
          "internalType": "address",
          "name": "_tokenIn",
          "type": "address"
        },
        {
          "internalType": "uint256",
          "name": "_amountIn",
          "type": "uint256"
        },
        {
          "internalType": "uint256",
          "name": "minDy",
          "type": "uint256"
        }
      ],
      "name": "swap",
      "outputs": [
        {
          "internalType": "uint256",
          "name": "amountOut",
          "type": "uint256"
        }
      ],
      "stateMutability": "nonpayable",
      "type": "function"
    },
    {
      "inputs": [
        {
          "internalType": "uint256",
          "name": "_amount0",
          "type": "uint256"
        },
        {
          "internalType": "uint256",
          "name": "_amount1",
          "type": "uint256"
        },
        {
          "internalType": "uint256",
          "name": "minShares",
          "type": "uint256"
        }
      ],
      "name": "addLiquidity",
      "outputs": [
        {
          "internalType": "uint256",
          "name": "shares",
          "type": "uint256"
        }
      ],
      "stateMutability": "nonpayable",
      "type": "function"
    },
    {
      "inputs": [
        {
          "internalType": "uint256",
          "name": "_shares",
          "type": "uint256"
        },
        {
          "internalType": "uint256",
          "name": "_minAmountsOut0",
          "type": "uint256"
        },
        {
          "internalType": "uint256",
          "name": "_minAmountsOut1",
          "type": "uint256"
        }
      ],
      "name": "removeLiquidity",
      "outputs": [
        {
          "internalType": "uint256",
          "name": "amount0",
          "type": "uint256"
        },
        {
          "internalType": "uint256",
          "name": "amount1",
          "type": "uint256"
        }
      ],
      "stateMutability": "nonpayable",
      "type": "function"
    }
  ],
  "bytecode": "0x60c06040526509184e72a0006004556003600e546200001f91906200013b565b600c556101f4600d55620d2f00600e556001600f55600560105560016011556064601255601154601254620000559190620001b5565b601355620f42406014553480156200006c57600080fd5b5060405162002e2838038062002e28833981810160405281019062000092919062000257565b8173ffffffffffffffffffffffffffffffffffffffff1660808173ffffffffffffffffffffffffffffffffffffffff16815250508073ffffffffffffffffffffffffffffffffffffffff1660a08173ffffffffffffffffffffffffffffffffffffffff168152505050506200029e565b6000819050919050565b7f4e487b7100000000000000000000000000000000000000000000000000000000600052601160045260246000fd5b6000620001488262000102565b9150620001558362000102565b9250828202620001658162000102565b915082820484148315176200017f576200017e6200010c565b5b5092915050565b7f4e487b7100000000000000000000000000000000000000000000000000000000600052601260045260246000fd5b6000620001c28262000102565b9150620001cf8362000102565b925082620001e257620001e162000186565b5b828204905092915050565b600080fd5b600073ffffffffffffffffffffffffffffffffffffffff82169050919050565b60006200021f82620001f2565b9050919050565b620002318162000212565b81146200023d57600080fd5b50565b600081519050620002518162000226565b92915050565b60008060408385031215620002715762000270620001ed565b5b6000620002818582860162000240565b9250506020620002948582860162000240565b9150509250929050565b60805160a051612a996200038f6000396000818161050b015281816108c301528181610a0001528181610b3e01528181610d2801528181610dd801528181610ecb015281816110ea0152818161128d015281816113fc01528181611573015281816115e1015281816118d90152611a5b01526000818161046e015281816104b601528181610620015281816108250152818161095f01528181610aa401528181610e2d0152818161104b0152818161119501528181611238015281816113620152818161151701528181611594015281816115c00152818161183f0152818161198f0152611a350152612a996000f3fe608060405234801561001057600080fd5b50600436106101425760003560e01c806370a08231116100b85780639f1d0f591161007c5780639f1d0f5914610394578063b93148a5146103c4578063ba94a315146103f4578063d21220a714610412578063d43df51014610430578063dfe5be7b1461044e57610142565b806370a08231146102c757806370cda86c146102f757806384ec563f14610315578063857620e11461033357806385df17d11461036457610142565b806323ef579b1161010a57806323ef579b146101dd578063422f10431461020d57806343d3e8de1461023d5780635398c7cf1461025b57806369a994dd1461028b5780636f26a710146102a957610142565b80630dfe168114610147578063108a23131461016557806318160ddd146101835780631a30f1f4146101a1578063226e4717146101bf575b600080fd5b61014f61046c565b60405161015c9190612134565b60405180910390f35b61016d610490565b60405161017a9190612168565b60405180910390f35b61018b61049a565b6040516101989190612168565b60405180910390f35b6101a96104a0565b6040516101b691906121a4565b60405180910390f35b6101c76104a8565b6040516101d49190612168565b60405180910390f35b6101f760048036038101906101f2919061221c565b6104b2565b6040516102049190612168565b60405180910390f35b6102276004803603810190610222919061225c565b610710565b6040516102349190612168565b60405180910390f35b610245610d1a565b6040516102529190612168565b60405180910390f35b610275600480360381019061027091906122af565b610d24565b6040516102829190612168565b60405180910390f35b610293610dca565b6040516102a09190612168565b60405180910390f35b6102b1610dd4565b6040516102be9190612134565b60405180910390f35b6102e160048036038101906102dc91906122ef565b610dfc565b6040516102ee9190612168565b60405180910390f35b6102ff610e14565b60405161030c91906121a4565b60405180910390f35b61031d610e1c565b60405161032a9190612168565b60405180910390f35b61034d6004803603810190610348919061225c565b610e26565b60405161035b92919061231c565b60405180910390f35b61037e600480360381019061037991906122ef565b611191565b60405161038b9190612168565b60405180910390f35b6103ae60048036038101906103a99190612345565b611234565b6040516103bb9190612168565b60405180910390f35b6103de60048036038101906103d991906122af565b61198b565b6040516103eb9190612168565b60405180910390f35b6103fc611a31565b6040516104099190612134565b60405180910390f35b61041a611a59565b6040516104279190612134565b60405180910390f35b610438611a7d565b6040516104459190612168565b60405180910390f35b610456611a87565b6040516104639190612168565b60405180910390f35b7f000000000000000000000000000000000000000000000000000000000000000081565b6000600a54905090565b60025481565b600033905090565b6000600554905090565b60007f000000000000000000000000000000000000000000000000000000000000000073ffffffffffffffffffffffffffffffffffffffff168373ffffffffffffffffffffffffffffffffffffffff16148061055957507f000000000000000000000000000000000000000000000000000000000000000073ffffffffffffffffffffffffffffffffffffffff168373ffffffffffffffffffffffffffffffffffffffff16145b610598576040517f08c379a000000000000000000000000000000000000000000000000000000000815260040161058f906123f5565b60405180910390fd5b600082116105db576040517f08c379a00000000000000000000000000000000000000000000000000000000081526004016105d290612461565b60405180910390fd5b6000826004546105eb91906124b0565b90506000601454600d548361060091906124b0565b61060a9190612521565b90506000818361061a9190612552565b905060007f000000000000000000000000000000000000000000000000000000000000000073ffffffffffffffffffffffffffffffffffffffff168773ffffffffffffffffffffffffffffffffffffffff161490506000808261068257600154600054610689565b6000546001545b9150915060006004548261069d91906124b0565b90506000600454846106af91906124b0565b9050600086826106bf9190612586565b9050600083905060006106dd8386866106d89190612586565b611a91565b90506000600182846106ef9190612552565b6106f99190612552565b9050809c5050505050505050505050505092915050565b6000806000905060005b6015805490508110156107b0573373ffffffffffffffffffffffffffffffffffffffff1660158281548110610752576107516125ba565b5b9060005260206000200160009054906101000a900473ffffffffffffffffffffffffffffffffffffffff1673ffffffffffffffffffffffffffffffffffffffff160361079d57600191505b80806107a8906125e9565b91505061071a565b506000151581151503610821576015339080600181540180825580915050600190039060005260206000200160009091909190916101000a81548173ffffffffffffffffffffffffffffffffffffffff021916908373ffffffffffffffffffffffffffffffffffffffff1602179055505b60007f000000000000000000000000000000000000000000000000000000000000000073ffffffffffffffffffffffffffffffffffffffff166370a08231306040518263ffffffff1660e01b815260040161087c91906121a4565b602060405180830381865afa158015610899573d6000803e3d6000fd5b505050506040513d601f19601f820116820180604052508101906108bd9190612646565b905060007f000000000000000000000000000000000000000000000000000000000000000073ffffffffffffffffffffffffffffffffffffffff166370a08231306040518263ffffffff1660e01b815260040161091a91906121a4565b602060405180830381865afa158015610937573d6000803e3d6000fd5b505050506040513d601f19601f8201168201806040525081019061095b9190612646565b90507f000000000000000000000000000000000000000000000000000000000000000073ffffffffffffffffffffffffffffffffffffffff166323b872dd33308a6040518463ffffffff1660e01b81526004016109ba93929190612673565b6020604051808303816000875af11580156109d9573d6000803e3d6000fd5b505050506040513d601f19601f820116820180604052508101906109fd91906126e2565b507f000000000000000000000000000000000000000000000000000000000000000073ffffffffffffffffffffffffffffffffffffffff166323b872dd3330896040518463ffffffff1660e01b8152600401610a5b93929190612673565b6020604051808303816000875af1158015610a7a573d6000803e3d6000fd5b505050506040513d601f19601f82011682018060405250810190610a9e91906126e2565b50610bdb7f000000000000000000000000000000000000000000000000000000000000000073ffffffffffffffffffffffffffffffffffffffff166370a08231306040518263ffffffff1660e01b8152600401610afb91906121a4565b602060405180830381865afa158015610b18573d6000803e3d6000fd5b505050506040513d601f19601f82011682018060405250810190610b3c9190612646565b7f000000000000000000000000000000000000000000000000000000000000000073ffffffffffffffffffffffffffffffffffffffff166370a08231306040518263ffffffff1660e01b8152600401610b9591906121a4565b602060405180830381865afa158015610bb2573d6000803e3d6000fd5b505050506040513d601f19601f82011682018060405250810190610bd69190612646565b611c3c565b60006002549050600080821115610bfb578284610bf89190612586565b90505b6000888a8587610c0b9190612586565b610c159190612586565b610c1f9190612586565b9050818111610c63576040517f08c379a0000000000000000000000000000000000000000000000000000000008152600401610c5a9061275b565b60405180910390fd5b6000898b8688610c739190612586565b610c7d9190612586565b610c879190612586565b90506000841115610cbb5782848483610ca09190612552565b610caa91906124b0565b610cb49190612521565b9750610cbf565b8097505b88881015610d02576040517f08c379a0000000000000000000000000000000000000000000000000000000008152600401610cf9906127c7565b60405180910390fd5b610d0c3389611c4e565b505050505050509392505050565b6000600854905090565b60007f000000000000000000000000000000000000000000000000000000000000000073ffffffffffffffffffffffffffffffffffffffff1663dd62ed3e84846040518363ffffffff1660e01b8152600401610d819291906127e7565b602060405180830381865afa158015610d9e573d6000803e3d6000fd5b505050506040513d601f19601f82011682018060405250810190610dc29190612646565b905092915050565b6000600d54905090565b60007f0000000000000000000000000000000000000000000000000000000000000000905090565b60036020528060005260406000206000915090505481565b600030905090565b6000600654905090565b60008060007f000000000000000000000000000000000000000000000000000000000000000073ffffffffffffffffffffffffffffffffffffffff166370a08231306040518263ffffffff1660e01b8152600401610e8491906121a4565b602060405180830381865afa158015610ea1573d6000803e3d6000fd5b505050506040513d601f19601f82011682018060405250810190610ec59190612646565b905060007f000000000000000000000000000000000000000000000000000000000000000073ffffffffffffffffffffffffffffffffffffffff166370a08231306040518263ffffffff1660e01b8152600401610f2291906121a4565b602060405180830381865afa158015610f3f573d6000803e3d6000fd5b505050506040513d601f19601f82011682018060405250810190610f639190612646565b90506002548288610f7491906124b0565b610f7e9190612521565b93506002548188610f8f91906124b0565b610f999190612521565b9250858411610fdd576040517f08c379a0000000000000000000000000000000000000000000000000000000008152600401610fd49061285c565b60405180910390fd5b84831161101f576040517f08c379a0000000000000000000000000000000000000000000000000000000008152600401611016906128c8565b60405180910390fd5b6110293388611cc1565b61104984836110389190612552565b84836110449190612552565b611c3c565b7f000000000000000000000000000000000000000000000000000000000000000073ffffffffffffffffffffffffffffffffffffffff1663a9059cbb33866040518363ffffffff1660e01b81526004016110a49291906128e8565b6020604051808303816000875af11580156110c3573d6000803e3d6000fd5b505050506040513d601f19601f820116820180604052508101906110e791906126e2565b507f000000000000000000000000000000000000000000000000000000000000000073ffffffffffffffffffffffffffffffffffffffff1663a9059cbb33856040518363ffffffff1660e01b81526004016111439291906128e8565b6020604051808303816000875af1158015611162573d6000803e3d6000fd5b505050506040513d601f19601f8201168201806040525081019061118691906126e2565b505050935093915050565b60007f000000000000000000000000000000000000000000000000000000000000000073ffffffffffffffffffffffffffffffffffffffff166370a08231836040518263ffffffff1660e01b81526004016111ec91906121a4565b602060405180830381865afa158015611209573d6000803e3d6000fd5b505050506040513d601f19601f8201168201806040525081019061122d9190612646565b9050919050565b60007f000000000000000000000000000000000000000000000000000000000000000073ffffffffffffffffffffffffffffffffffffffff168473ffffffffffffffffffffffffffffffffffffffff1614806112db57507f000000000000000000000000000000000000000000000000000000000000000073ffffffffffffffffffffffffffffffffffffffff168473ffffffffffffffffffffffffffffffffffffffff16145b61131a576040517f08c379a0000000000000000000000000000000000000000000000000000000008152600401611311906123f5565b60405180910390fd5b6000831161135d576040517f08c379a000000000000000000000000000000000000000000000000000000000815260040161135490612461565b60405180910390fd5b6114997f000000000000000000000000000000000000000000000000000000000000000073ffffffffffffffffffffffffffffffffffffffff166370a08231306040518263ffffffff1660e01b81526004016113b991906121a4565b602060405180830381865afa1580156113d6573d6000803e3d6000fd5b505050506040513d601f19601f820116820180604052508101906113fa9190612646565b7f000000000000000000000000000000000000000000000000000000000000000073ffffffffffffffffffffffffffffffffffffffff166370a08231306040518263ffffffff1660e01b815260040161145391906121a4565b602060405180830381865afa158015611470573d6000803e3d6000fd5b505050506040513d601f19601f820116820180604052508101906114949190612646565b611c3c565b600b54426114a79190612552565b600c81905550600e54600c5411156114cf576003600e546114c891906124b0565b600c819055505b42600b819055506114de611d34565b600d819055506000601454600d54856114f791906124b0565b6115019190612521565b9050600081856115119190612552565b905060007f000000000000000000000000000000000000000000000000000000000000000073ffffffffffffffffffffffffffffffffffffffff168773ffffffffffffffffffffffffffffffffffffffff16149050600080600080846115be577f00000000000000000000000000000000000000000000000000000000000000007f0000000000000000000000000000000000000000000000000000000000000000600154600054611607565b7f00000000000000000000000000000000000000000000000000000000000000007f00000000000000000000000000000000000000000000000000000000000000006000546001545b93509350935093507f7555af2555a8bbed5fad62d4dd2bc7db1cc7bc5cef9ec367656a79a3800b00af8660405161163e919061295d565b60405180910390a18373ffffffffffffffffffffffffffffffffffffffff166323b872dd33308d6040518463ffffffff1660e01b815260040161168393929190612673565b6020604051808303816000875af11580156116a2573d6000803e3d6000fd5b505050506040513d601f19601f820116820180604052508101906116c691906126e2565b50600086836116d59190612586565b9050600082905083600581905550826006819055508060098190555060006117088385876117039190612586565b611a91565b905080600a819055506000600182846117219190612552565b61172b9190612552565b90508c811015611770576040517f08c379a0000000000000000000000000000000000000000000000000000000008152600401611767906129d7565b60405180910390fd5b8673ffffffffffffffffffffffffffffffffffffffff1663a9059cbb33836040518363ffffffff1660e01b81526004016117ab9291906128e8565b6020604051808303816000875af11580156117ca573d6000803e3d6000fd5b505050506040513d601f19601f820116820180604052508101906117ee91906126e2565b5085600581905550846006819055508260098190555081600a81905550806008819055508d60078190555061183a88600a8d61182a9190612521565b8d6118359190612552565b611daf565b6119767f000000000000000000000000000000000000000000000000000000000000000073ffffffffffffffffffffffffffffffffffffffff166370a08231306040518263ffffffff1660e01b815260040161189691906121a4565b602060405180830381865afa1580156118b3573d6000803e3d6000fd5b505050506040513d601f19601f820116820180604052508101906118d79190612646565b7f000000000000000000000000000000000000000000000000000000000000000073ffffffffffffffffffffffffffffffffffffffff166370a08231306040518263ffffffff1660e01b815260040161193091906121a4565b602060405180830381865afa15801561194d573d6000803e3d6000fd5b505050506040513d601f19601f820116820180604052508101906119719190612646565b611c3c565b809b5050505050505050505050509392505050565b60007f000000000000000000000000000000000000000000000000000000000000000073ffffffffffffffffffffffffffffffffffffffff1663dd62ed3e84846040518363ffffffff1660e01b81526004016119e89291906127e7565b602060405180830381865afa158015611a05573d6000803e3d6000fd5b505050506040513d601f19601f82011682018060405250810190611a299190612646565b905092915050565b60007f0000000000000000000000000000000000000000000000000000000000000000905090565b7f000000000000000000000000000000000000000000000000000000000000000081565b6000600754905090565b6000600954905090565b60008060026107d0611aa391906124b0565b90506000839050600080829050869150866002611ac091906124b0565b8382611acc91906124b0565b611ad69190612521565b9050836002611ae591906124b0565b8382611af191906124b0565b611afb9190612521565b905060008484611b0b9190612521565b83611b169190612586565b905060008085905060005b60ff811015611bfa5760018211611b4357600098505050505050505050611c36565b600187611b509190612586565b84836002611b5e91906124b0565b611b689190612586565b1015611b7f57600098505050505050505050611c36565b8192508684836002611b9191906124b0565b611b9b9190612586565b611ba59190612552565b858384611bb291906124b0565b611bbc9190612586565b611bc69190612521565b91506001611bd48385611f29565b11611be9578198505050505050505050611c36565b80611bf3906125e9565b9050611b21565b506040517f08c379a0000000000000000000000000000000000000000000000000000000008152600401611c2d90612a43565b60405180910390fd5b92915050565b81600081905550806001819055505050565b80600360008473ffffffffffffffffffffffffffffffffffffffff1673ffffffffffffffffffffffffffffffffffffffff1681526020019081526020016000206000828254611c9d9190612586565b925050819055508060026000828254611cb69190612586565b925050819055505050565b80600360008473ffffffffffffffffffffffffffffffffffffffff1673ffffffffffffffffffffffffffffffffffffffff1681526020019081526020016000206000828254611d109190612552565b925050819055508060026000828254611d299190612552565b925050819055505050565b600080600c549050600060105490506000611d4f8383611f59565b90506000600a826046611d6291906124b0565b600d546003611d7191906124b0565b611d7b9190612586565b611d859190612521565b90506103e7811115611d97576103e790505b6064811015611da557606490505b8094505050505090565b60005b601580549050811015611f24578273ffffffffffffffffffffffffffffffffffffffff1663a9059cbb60158381548110611def57611dee6125ba565b5b9060005260206000200160009054906101000a900473ffffffffffffffffffffffffffffffffffffffff166002546003600060158781548110611e3557611e346125ba565b5b9060005260206000200160009054906101000a900473ffffffffffffffffffffffffffffffffffffffff1673ffffffffffffffffffffffffffffffffffffffff1673ffffffffffffffffffffffffffffffffffffffff1681526020019081526020016000205486611ea691906124b0565b611eb09190612521565b6040518363ffffffff1660e01b8152600401611ecd9291906128e8565b6020604051808303816000875af1158015611eec573d6000803e3d6000fd5b505050506040513d601f19601f82011682018060405250810190611f1091906126e2565b508080611f1c906125e9565b915050611db2565b505050565b600081831015611f44578282611f3f9190612552565b611f51565b8183611f509190612552565b5b905092915050565b60008069152d02c7e14af68000009050600084601154611f7991906124b0565b9050600084905060006004546001611f9191906124b0565b90506000600190506000600190506000600290505b600f81101561207f578583611fbb91906124b0565b9250808583611fca91906124b0565b611fd491906124b0565b91508160045484611fe591906124b0565b1061207f578160045484611ff991906124b0565b6120039190612521565b8461200e9190612586565b9350868311801561201e57508682115b1561204a576402540be400836120349190612521565b92506402540be400826120479190612521565b91505b600454606460115461205c91906124b0565b61206691906124b0565b841161207f578080612077906125e9565b915050611fa6565b5082600454606460115461209391906124b0565b61209d91906124b0565b6120a79190612521565b965050505050505092915050565b600073ffffffffffffffffffffffffffffffffffffffff82169050919050565b6000819050919050565b60006120fa6120f56120f0846120b5565b6120d5565b6120b5565b9050919050565b600061210c826120df565b9050919050565b600061211e82612101565b9050919050565b61212e81612113565b82525050565b60006020820190506121496000830184612125565b92915050565b6000819050919050565b6121628161214f565b82525050565b600060208201905061217d6000830184612159565b92915050565b600061218e826120b5565b9050919050565b61219e81612183565b82525050565b60006020820190506121b96000830184612195565b92915050565b600080fd5b6121cd81612183565b81146121d857600080fd5b50565b6000813590506121ea816121c4565b92915050565b6121f98161214f565b811461220457600080fd5b50565b600081359050612216816121f0565b92915050565b60008060408385031215612233576122326121bf565b5b6000612241858286016121db565b925050602061225285828601612207565b9150509250929050565b600080600060608486031215612275576122746121bf565b5b600061228386828701612207565b935050602061229486828701612207565b92505060406122a586828701612207565b9150509250925092565b600080604083850312156122c6576122c56121bf565b5b60006122d4858286016121db565b92505060206122e5858286016121db565b9150509250929050565b600060208284031215612305576123046121bf565b5b6000612313848285016121db565b91505092915050565b60006040820190506123316000830185612159565b61233e6020830184612159565b9392505050565b60008060006060848603121561235e5761235d6121bf565b5b600061236c868287016121db565b935050602061237d86828701612207565b925050604061238e86828701612207565b9150509250925092565b600082825260208201905092915050565b7f696e76616c696420746f6b656e00000000000000000000000000000000000000600082015250565b60006123df600d83612398565b91506123ea826123a9565b602082019050919050565b6000602082019050818103600083015261240e816123d2565b9050919050565b7f616d6f756e7420696e203d203000000000000000000000000000000000000000600082015250565b600061244b600d83612398565b915061245682612415565b602082019050919050565b6000602082019050818103600083015261247a8161243e565b9050919050565b7f4e487b7100000000000000000000000000000000000000000000000000000000600052601160045260246000fd5b60006124bb8261214f565b91506124c68361214f565b92508282026124d48161214f565b915082820484148315176124eb576124ea612481565b5b5092915050565b7f4e487b7100000000000000000000000000000000000000000000000000000000600052601260045260246000fd5b600061252c8261214f565b91506125378361214f565b925082612547576125466124f2565b5b828204905092915050565b600061255d8261214f565b91506125688361214f565b92508282039050818111156125805761257f612481565b5b92915050565b60006125918261214f565b915061259c8361214f565b92508282019050808211156125b4576125b3612481565b5b92915050565b7f4e487b7100000000000000000000000000000000000000000000000000000000600052603260045260246000fd5b60006125f48261214f565b91507fffffffffffffffffffffffffffffffffffffffffffffffffffffffffffffffff820361262657612625612481565b5b600182019050919050565b600081519050612640816121f0565b92915050565b60006020828403121561265c5761265b6121bf565b5b600061266a84828501612631565b91505092915050565b60006060820190506126886000830186612195565b6126956020830185612195565b6126a26040830184612159565b949350505050565b60008115159050919050565b6126bf816126aa565b81146126ca57600080fd5b50565b6000815190506126dc816126b6565b92915050565b6000602082840312156126f8576126f76121bf565b5b6000612706848285016126cd565b91505092915050565b7f6c6971756964697479206469646e277420696e63726561736500000000000000600082015250565b6000612745601983612398565b91506127508261270f565b602082019050919050565b6000602082019050818103600083015261277481612738565b9050919050565b7f736861726573203c206d696e0000000000000000000000000000000000000000600082015250565b60006127b1600c83612398565b91506127bc8261277b565b602082019050919050565b600060208201905081810360008301526127e0816127a4565b9050919050565b60006040820190506127fc6000830185612195565b6128096020830184612195565b9392505050565b7f616d6f756e7430203c206d696e00000000000000000000000000000000000000600082015250565b6000612846600d83612398565b915061285182612810565b602082019050919050565b6000602082019050818103600083015261287581612839565b9050919050565b7f616d6f756e7430206f7220616d6f756e7431203d203000000000000000000000600082015250565b60006128b2601683612398565b91506128bd8261287c565b602082019050919050565b600060208201905081810360008301526128e1816128a5565b9050919050565b60006040820190506128fd6000830185612195565b61290a6020830184612159565b9392505050565b7f5f616d6f756e74496e5769746846656500000000000000000000000000000000600082015250565b6000612947601083612398565b915061295282612911565b602082019050919050565b600060408201905081810360008301526129768161293a565b90506129856020830184612159565b92915050565b7f6479203c206d696e000000000000000000000000000000000000000000000000600082015250565b60006129c1600883612398565b91506129cc8261298b565b602082019050919050565b600060208201905081810360008301526129f0816129b4565b9050919050565b7f79206469646e277420636f6e7665726765000000000000000000000000000000600082015250565b6000612a2d601183612398565b9150612a38826129f7565b602082019050919050565b60006020820190508181036000830152612a5c81612a20565b905091905056fea2646970667358221220df66f20739e9f8a7b1661cd638648b77bcebd57580ca39e42d2d77910675653e64736f6c63430008130033",
  "immutableReferences": {
    "32": [
      {
        "length": 32,
        "start": 1134
      },
      {
        "length": 32,
        "start": 1206
      },
      {
        "length": 32,
        "start": 1568
      },
      {
        "length": 32,
        "start": 2085
      },
      {
        "length": 32,
        "start": 2399
      },
      {
        "length": 32,
        "start": 2724
      },
      {
        "length": 32,
        "start": 3629
      },
      {
        "length": 32,
        "start": 4171
      },
      {
        "length": 32,
        "start": 4501
      },
      {
        "length": 32,
        "start": 4664
      },
      {
        "length": 32,
        "start": 4962
      },
      {
        "length": 32,
        "start": 5399
      },
      {
        "length": 32,
        "start": 5524
      },
      {
        "length": 32,
        "start": 5568
      },
      {
        "length": 32,
        "start": 6207
      },
      {
        "length": 32,
        "start": 6543
      },
      {
        "length": 32,
        "start": 6709
      }
    ],
    "35": [
      {
        "length": 32,
        "start": 1291
      },
      {
        "length": 32,
        "start": 2243
      },
      {
        "length": 32,
        "start": 2560
      },
      {
        "length": 32,
        "start": 2878
      },
      {
        "length": 32,
        "start": 3368
      },
      {
        "length": 32,
        "start": 3544
      },
      {
        "length": 32,
        "start": 3787
      },
      {
        "length": 32,
        "start": 4330
      },
      {
        "length": 32,
        "start": 4749
      },
      {
        "length": 32,
        "start": 5116
      },
      {
        "length": 32,
        "start": 5491
      },
      {
        "length": 32,
        "start": 5601
      },
      {
        "length": 32,
        "start": 6361
      },
      {
        "length": 32,
        "start": 6747
      }
    ]
  },
  "source": "// SPDX-License-Identifier: MIT\npragma solidity ^0.8.19;\n\nlibrary Math {\n    function abs(uint256 x, uint256 y) internal pure returns (uint256) {\n        return x >= y ? x - y : y - x;\n    }\n}\n\n// getLogm(), calculatepopularity()\n// addLiqudity()swap()\ncontract CAMM {\n\n    event output(string,uint256);\n    IERC20 public immutable token0;\n    IERC20 public immutable token1;\n\n    // Number of tokens\n    uint256 private constant N = 2;\n    \n    uint256 private constant A = 2000;\n    \n    uint256 private constant DECIMALS = 18;\n\n    uint256 private reserve0;\n    uint256 private reserve1;\n\n    uint256 public totalSupply;\n    mapping(address => uint256) public balanceOf;\n\n    ////////////////////////////////////////////////////////////////////////////////////////////////////////////////////////\n        // 0. ERC20 base feature\n    ////////////////////////////////////////////////////////////////////////////////////////////////////////////////////////\n\n    constructor(address _token0, address _token1) {\n        token0 = IERC20(_token0);\n        token1 = IERC20(_token1);\n    }\n\n    function _mint(address _to, uint256 _amount) private {\n        balanceOf[_to] += _amount;\n        totalSupply += _amount;\n    }\n\n    function _burn(address _from, uint256 _amount) private {\n        balanceOf[_from] -= _amount;\n        totalSupply -= _amount;\n    }\n\n    function _update(uint256 _reserve0, uint256 _reserve1) private {\n        reserve0 = _reserve0;\n        reserve1 = _reserve1;\n    }\n\n\n    ////////////////////////////////////////////////////////////////////////////////////////////////////////////////////////\n        // 1.  external\n    ////////////////////////////////////////////////////////////////////////////////////////////////////////////////////////\n\n\n    // precise exchange rate * 1e13 (Big exchange rate)\n    uint256 private floatingPointPrecision = 1e13;\n    function exchange_rate(\n        address _tokenIn, uint256 _amountIn\n    ) external view returns (uint256 BigamountOut) {\n        \n        require(_tokenIn == address(token0) || _tokenIn == address(token1), \"invalid token\");\n        require(_amountIn > 0, \"amount in = 0\");\n\n        uint256 BigAmountIn = floatingPointPrecision * _amountIn;\n\n        uint256 Bigfee = BigAmountIn* lastPopularity / popularity_precision;\n        uint256 BigamountInWithFee = BigAmountIn - Bigfee;    // deduct fee\n        \n\n       //token0token1token1token0\n        bool isToken0 = _tokenIn == address(token0);\n        (uint256 reserveIn, uint256 reserveOut)\n        = isToken0\n            ? (reserve0, reserve1)\n            : (reserve1, reserve0);\n        \n        \n        uint256 BigreserveOut = reserveOut * floatingPointPrecision;\n        uint256 BigreserveIn = reserveIn * floatingPointPrecision;\n\n        // Calculate dy\n        uint256 Bigx = (BigreserveIn + BigamountInWithFee); //\n        uint256 Bigy0 = BigreserveOut;   //\n        uint256 Bigy1 = _getY(Bigx, (BigreserveIn + BigreserveOut));\n\n        // y0 must be >= y1, since x has increased\n        // -1 to round down\n        uint256 Bigdy = (Bigy0 - Bigy1 - 1);\n        BigamountOut = Bigdy;\n    }\n    function getpopularity() public view returns(uint256){\n        return lastPopularity;\n    }\n\n    function getToken0() external view returns(IERC20){return token0;}\n    function getToken1() external view returns(IERC20){return token1;}\n    function getoperator() external view returns(address){return msg.sender;}\n    function getProtocoladdr() external view returns(address){return address(this);}\n    function getProtocoladdrBalance(address addr) external view returns(uint256){return token0.balanceOf(addr);}\n    function getApproveToken0(address owner, address spender)external view returns(uint256){return token0.allowance(owner,spender);}\n    function getApproveToken1(address owner, address spender)external view returns(uint256){return token1.allowance(owner,spender);}\n\n    uint256 tmp_reserveIn;\n    function getreserveIn()external view returns(uint256){return tmp_reserveIn;}\n\n    uint256 tmp_reserveOut;\n    function getreserveOut()external view returns(uint256){return tmp_reserveOut;}\n\n    uint256 tmp_amountIn;\n    function getlastamountIn()external view returns(uint256){return tmp_amountIn;}\n    uint256 tmp_dy;\n    function getlastdy()external view returns(uint256){return tmp_dy;}\n    uint256 tmp_y0;\n    function getlasty0()external view returns(uint256){return tmp_y0;}\n    uint256 tmp_y1;\n    function getlasty1()external view returns(uint256){return tmp_y1;}\n\n\n\n    ////////////////////////////////////////////////////////////////////////////////////////////////////////////////////////\n        // 2. popularity()\n    ////////////////////////////////////////////////////////////////////////////////////////////////////////////////////////\n\n    uint256 private lastSwapTimestamp;      //\n    uint256 private lastDeltaT=MaxDeltaT * 3;\n    uint256 private lastPopularity = 500;   //\n\n\n    // swapcalculateFee\n    uint256 private MaxDeltaT = 10 * 24 * 3600; //  1s - 10 * 24 * 3600 \n    uint256 private MinDeltaT = 1;\n    // uint256 divisions = 10;\n    // uint256 interval = (MaxDeltaT-MinDeltaT-1)/divisions;\n    uint256 private interval = 5;\n\n    uint256 private exponent_numbda = 1;\n    uint256 private MaxTimefactor = 100;\n    uint256 private y_parameter = MaxTimefactor / exponent_numbda;  // exponent_numbda\n\n    //  f(x;numda)=numba * e^(-numda*x) = numbda * 1 / (e^[numbda*x])   numbda*x = p\n    // e^p = 1+ p^2/1*2 + p^3/1*2*3 + ... + p^i / i!\n    function calculate_Timefactor(uint256 x_numerator, uint256 x_denominator)private view returns(uint256){    \n        // uint256 e = 27182818284590;    // e * floatingPointPrecision\n        uint256 Maxnum = 1e23;\n\n        // uint256 p = numbda * x ;\n        uint256 p_numerator = exponent_numbda * x_numerator;\n        uint256 p_denominator = x_denominator;\n\n        // e^p = 1+ p^2/1*2 + p^3/1*2*3 + ... + p^i / i!\n        uint256 eP = 1 * floatingPointPrecision;\n\n        uint256 item_numerator = 1;\n        uint256 item_denominator = 1;\n\n        for (uint256 i=2;i<15;i++){\n            item_numerator = item_numerator * p_numerator;\n            item_denominator = item_denominator * p_denominator * i;\n            if (item_numerator * floatingPointPrecision < item_denominator)break;\n            eP = eP + item_numerator * floatingPointPrecision / item_denominator;\n            if (item_numerator > Maxnum && item_denominator > Maxnum){\n                item_numerator = item_numerator / 1e10;\n                item_denominator = item_denominator / 1e10;\n            }\n            if (eP > exponent_numbda * 100 * floatingPointPrecision)break;\n        }\n\n        return exponent_numbda * 100 * floatingPointPrecision/ eP;\n        \n    }\n\n\n    uint256 popularity_precision = 1e6;\n\n    function calculatepopularity() private view returns (uint256) {\n        uint256 _deltaT = lastDeltaT;\n        uint256 _interval = interval;\n        uint256 TimeFactor= calculate_Timefactor(_deltaT, _interval);   // [0,100] %%\n\n        //popularity [0,1000]\n        uint256 popularity = (3 * lastPopularity + 70 * TimeFactor)/10;\n\n        if (popularity>999)popularity = 999;    //    1%\n        if (popularity<100)popularity = 100;    //// 0.1%\n        return popularity;\n    }\n    \n\n\n    ////////////////////////////////////////////////////////////////////////////////////////////////////////////////////////\n        // 3. CAMM dy\n    ////////////////////////////////////////////////////////////////////////////////////////////////////////////////////////\n\n    function _getD() private view returns (uint256) {\n        uint256 a = A * N; // An^n\n\n        uint256 s; // x_0 + x_1 + ... + x_(n-1)\n        uint256 xp0 = token0.balanceOf(address(this))*1e18;\n        uint256 xp1 = token1.balanceOf(address(this))*1e18;\n        s = xp0+xp1;\n\n        uint256 d = s;\n        uint256 d_prev;\n        for (uint256 i; i < 255; ++i) {\n            // p = D^(n + 1) / (n^n * x_0 * ... * x_(n-1))\n            uint256 p = d;\n            p=(p*d)/(2*xp0);\n            p=(p*d)/(2*xp1);\n            d_prev = d;\n            d = ((a * s + 2 * p) * d) / ((a - 1) * d + 3 * p);\n\n            if (Math.abs(d, d_prev) <= 1) {\n                return d;\n            }\n        }\n        revert(\"D didn't converge\");\n    }\n\n    function _getY(\n        uint256 x, //\n        uint256 D //  D<<x\n    ) private pure returns (uint256) {\n        uint256 a = A * 2;  //4000\n        uint256 d = D;\n        uint256 s;\n        uint256 c = d;\n        s = x;\n        c = (c * d) / (2 * x);\n        c = (c * d) / (2 * a);\n        uint256 b = s + d / a;\n        // Newton's method\n        uint256 y_prev;\n        // Initial guess, y <= d\n        uint256 y = d;\n        for (uint256 _i; _i < 255; ++_i) {\n            if (y <= 1)return 0;      // prevent overflow, break for y = 0\n            if (2 * y + b  < d + 1)return 0;      // prevent overflow, break for y = 0\n            y_prev = y; \n            y = (y * y + c) / (2 * y + b - d);\n\n            if (Math.abs(y, y_prev) <= 1) {\n                return y;\n            }\n        }\n        revert(\"y didn't converge\");\n    }\n\n\n    ////////////////////////////////////////////////////////////////////////////////////////////////////////////////////////\n        // 4. CAMM swap\n    ////////////////////////////////////////////////////////////////////////////////////////////////////////////////////////\n\n    function dispense_fee_to_LPProvider(IERC20 tokenIn, uint256 fee)private {\n        \n        for (uint k=0;k<LPprovider.length;k++){\n           IERC20(tokenIn).transfer(LPprovider[k], fee * balanceOf[LPprovider[k]]/ totalSupply);\n        }\n    }\n    \n    function swap(\n        address _tokenIn, uint256 _amountIn, uint256 minDy\n    ) external returns (uint256 amountOut) {\n        \n        require(_tokenIn == address(token0) || _tokenIn == address(token1), \"invalid token\");\n        require(_amountIn > 0, \"amount in = 0\");\n\n        _update(token0.balanceOf(address(this)), token1.balanceOf(address(this)));        \n\n        lastDeltaT = block.timestamp - lastSwapTimestamp;   // \n        if (lastDeltaT > MaxDeltaT) lastDeltaT = MaxDeltaT * 3;\n        lastSwapTimestamp = block.timestamp;\n        lastPopularity = calculatepopularity(); // Popularity\n\n        uint256 fee = _amountIn* lastPopularity / popularity_precision;\n        uint256 _amountInWithFee = _amountIn - fee;    // deduct fee\n        \n       //token0token1token1token0\n        bool isToken0 = _tokenIn == address(token0);\n        (IERC20 tokenIn, IERC20 tokenOut, uint256 reserveIn, uint256 reserveOut)\n        = isToken0\n            ? (token0, token1, reserve0, reserve1)\n            : (token1, token0, reserve1, reserve0);\n        \n        emit output(\"_amountInWithFee\",_amountInWithFee);\n        IERC20(tokenIn).transferFrom(msg.sender, address(this), _amountIn);\n        \n        // Calculate dy\n        uint256 x = (reserveIn + _amountInWithFee); //\n        uint256 y0 = reserveOut;   //\n\n        tmp_reserveIn = reserveIn;\n        tmp_reserveOut = reserveOut;\n        tmp_y0 = y0;\n        uint256 y1 = _getY(x, (reserveIn + reserveOut));\n        tmp_y1 = y1;\n        // y0 must be >= y1, since x has increased\n        // -1 to round down\n        uint256 dy = (y0 - y1 - 1);\n        require(dy >= minDy, \"dy < min\");\n        IERC20(tokenOut).transfer(msg.sender, dy);\n\n        // record parameters\n        tmp_reserveIn = reserveIn;\n        tmp_reserveOut = reserveOut;\n        tmp_y0 = y0;\n        tmp_y1=y1;\n        tmp_dy = dy;\n        tmp_amountIn=_amountIn;\n\n        // feeLP provider, deduct 10% fee for CAMM\n        dispense_fee_to_LPProvider(tokenIn, fee - fee/10);\n        \n        // Update balances\n        _update(token0.balanceOf(address(this)), token1.balanceOf(address(this)));\n        \n        amountOut = dy;\n    }\n\n\n    ////////////////////////////////////////////////////////////////////////////////////////////////////////////////////////\n        // 5. CAMM add liquidityremove liquidity\n    ////////////////////////////////////////////////////////////////////////////////////////////////////////////////////////\n\n    \n\n    address[] private LPprovider;\n\n    \n    function addLiquidity(\n        uint256 _amount0,\n        uint256 _amount1,\n        uint256 minShares\n    ) external returns (uint256 shares) {\n\n        bool flag=false;\n        for (uint i=0;i<LPprovider.length;i++){\n            if (LPprovider[i]==msg.sender)flag=true;\n        }\n        if (flag==false)LPprovider.push(msg.sender);\n\n        uint256 _xp0 = token0.balanceOf(address(this));\n        uint256 _xp1 = token1.balanceOf(address(this));\n\n\n        // add liquidity\n        IERC20(token0).transferFrom(msg.sender, address(this), _amount0);\n        IERC20(token1).transferFrom(msg.sender, address(this), _amount1);\n\n        // Update balances\n        _update(token0.balanceOf(address(this)), token1.balanceOf(address(this)));\n\n        // calculate current liquidity d0\n        uint256 _totalSupply = totalSupply;\n        uint256 d0;\n        if (_totalSupply > 0) {\n            d0 = (_xp0+_xp1);\n        }\n\n        // Calculate new liquidity d1\n        uint256 d1 = (_xp0+_xp1+_amount0+_amount1);\n        require(d1 > d0, \"liquidity didn't increase\");\n\n        // deduct fee\n        uint256 d2 = (_xp0+_xp1+_amount0+_amount1);\n\n        // Shares to mint = (d2 - d0) / d0 * total supply\n\n        if (_totalSupply > 0) {\n            shares = ((d2 - d0) * _totalSupply) / d0;\n        } else {\n            shares = d2;\n        }\n        shares = shares;\n\n        require(shares >= minShares, \"shares < min\");\n\n        _mint(msg.sender, shares);\n    }\n\n    function removeLiquidity(\n        uint256 _shares,\n        uint256 _minAmountsOut0,\n        uint256 _minAmountsOut1\n    ) external returns (uint256 amount0, uint256 amount1){\n\n        uint256 bal0 = token0.balanceOf(address(this));\n        uint256 bal1 = token1.balanceOf(address(this));\n\n        amount0 = (_shares * bal0) / totalSupply;\n        amount1 = (_shares * bal1) / totalSupply;\n        require(amount0 > _minAmountsOut0, \"amount0 < min\");\n        require(amount1 > _minAmountsOut1, \"amount0 or amount1 = 0\");\n\n        _burn(msg.sender, _shares);\n        _update(bal0 - amount0, bal1 - amount1);\n\n        IERC20(token0).transfer(msg.sender, amount0);\n        IERC20(token1).transfer(msg.sender, amount1);\n    }\n\n}\n\n\ninterface IERC20 {\n    function totalSupply() external view returns (uint256);\n    function balanceOf(address account) external view returns (uint256);\n    function transfer(\n        address recipient,\n        uint256 amount\n    ) external returns (bool);\n    function allowance(\n        address owner,\n        address spender\n    ) external view returns (uint256);\n    function approve(address spender, uint256 amount) external returns (bool);\n    function transferFrom(\n        address sender,\n        address recipient,\n        uint256 amount\n    ) external returns (bool);\n}\n\n\n\n\n\ncontract ERC20Token0_CAMM is IERC20 {\n    event Transfer(address indexed from, address indexed to, uint256 value);\n    event Approval(\n        address indexed owner, address indexed spender, uint256 value\n    );\n\n    uint256 public totalSupply;\n    mapping(address => uint256) public balanceOf;\n    mapping(address => mapping(address => uint256)) public allowance;\n    string public name;\n    string public symbol;\n    uint8 public decimals;\n\n    constructor(string memory _name, string memory _symbol, uint8 _decimals) {      //:whatever    //10**decimals\n        name = _name;\n        symbol = _symbol;\n        decimals = _decimals;\n    }\n\n    function transfer(address recipient, uint256 amount)\n        external\n        returns (bool)\n    {\n        balanceOf[msg.sender] -= amount;\n        balanceOf[recipient] += amount;\n        emit Transfer(msg.sender, recipient, amount);\n        return true;\n    }\n\n    function approve(address spender, uint256 amount) external returns (bool) {\n        allowance[msg.sender][spender] = amount;\n        emit Approval(msg.sender, spender, amount);\n        return true;\n    }\n\n    function transferFrom(address sender, address recipient, uint256 amount)\n        external\n        returns (bool)\n    {\n        allowance[sender][msg.sender] -= amount;\n        balanceOf[sender] -= amount;\n        balanceOf[recipient] += amount;\n        emit Transfer(sender, recipient, amount);\n        return true;\n    }\n\n    function _mint(address to, uint256 amount) internal {\n        balanceOf[to] += amount;\n        totalSupply += amount;\n        emit Transfer(address(0), to, amount);\n    }\n\n    function _burn(address from, uint256 amount) internal {\n        balanceOf[from] -= amount;\n        totalSupply -= amount;\n        emit Transfer(from, address(0), amount);\n    }\n\n    function mint(address to, uint256 amount) external {\n        _mint(to, amount);\n    }\n\n    function burn(address from, uint256 amount) external {\n        _burn(from, amount);\n    }\n\n}\n\n\ncontract ERC20Token1_CAMM is IERC20 {\n    event Transfer(address indexed from, address indexed to, uint256 value);\n    event Approval(\n        address indexed owner, address indexed spender, uint256 value\n    );\n\n    uint256 public totalSupply;\n    mapping(address => uint256) public balanceOf;\n    mapping(address => mapping(address => uint256)) public allowance;\n    string public name;\n    string public symbol;\n    uint8 public decimals;\n\n    constructor(string memory _name, string memory _symbol, uint8 _decimals) {      //:whatever    //10**decimals\n        name = _name;\n        symbol = _symbol;\n        decimals = _decimals;\n    }\n\n    function transfer(address recipient, uint256 amount)\n        external\n        returns (bool)\n    {\n        balanceOf[msg.sender] -= amount;\n        balanceOf[recipient] += amount;\n        emit Transfer(msg.sender, recipient, amount);\n        return true;\n    }\n\n    function approve(address spender, uint256 amount) external returns (bool) {\n        allowance[msg.sender][spender] = amount;\n        emit Approval(msg.sender, spender, amount);\n        return true;\n    }\n\n    function transferFrom(address sender, address recipient, uint256 amount)\n        external\n        returns (bool)\n    {\n        allowance[sender][msg.sender] -= amount;\n        balanceOf[sender] -= amount;\n        balanceOf[recipient] += amount;\n        emit Transfer(sender, recipient, amount);\n        return true;\n    }\n\n    function _mint(address to, uint256 amount) internal {\n        balanceOf[to] += amount;\n        totalSupply += amount;\n        emit Transfer(address(0), to, amount);\n    }\n\n    function _burn(address from, uint256 amount) internal {\n        balanceOf[from] -= amount;\n        totalSupply -= amount;\n        emit Transfer(from, address(0), amount);\n    }\n\n    function mint(address to, uint256 amount) external {\n        _mint(to, amount);\n    }\n\n    function burn(address from, uint256 amount) external {\n        _burn(from, amount);\n    }\n\n}",
  "sourcePath": "D:\\CODE_storage\\solidity\\DeFi-sol-test\\contracts\\CAMMv7.sol",
  "compiler": {
    "name": "solc",
    "version": "0.8.19+commit.7dd6d404.Emscripten.clang"
  },
  "schemaVersion": "3.4.16",
  "updatedAt": "2024-04-21T12:42:28.802Z",
  "networkType": "ethereum",
  "devdoc": {
    "kind": "dev",
    "methods": {},
    "version": 1
  },
  "userdoc": {
    "kind": "user",
    "methods": {},
    "version": 1
  }
}