{
  "contractName": "CPAMM",
  "abi": [
    {
      "inputs": [
        {
          "internalType": "address",
          "name": "_token0",
          "type": "address"
        },
        {
          "internalType": "address",
          "name": "_token1",
          "type": "address"
        }
      ],
      "stateMutability": "nonpayable",
      "type": "constructor"
    },
    {
      "inputs": [
        {
          "internalType": "address",
          "name": "",
          "type": "address"
        }
      ],
      "name": "balanceOf",
      "outputs": [
        {
          "internalType": "uint256",
          "name": "",
          "type": "uint256"
        }
      ],
      "stateMutability": "view",
      "type": "function",
      "constant": true
    },
    {
      "inputs": [],
      "name": "reserve0",
      "outputs": [
        {
          "internalType": "uint256",
          "name": "",
          "type": "uint256"
        }
      ],
      "stateMutability": "view",
      "type": "function",
      "constant": true
    },
    {
      "inputs": [],
      "name": "reserve1",
      "outputs": [
        {
          "internalType": "uint256",
          "name": "",
          "type": "uint256"
        }
      ],
      "stateMutability": "view",
      "type": "function",
      "constant": true
    },
    {
      "inputs": [],
      "name": "token0",
      "outputs": [
        {
          "internalType": "contract IERC20",
          "name": "",
          "type": "address"
        }
      ],
      "stateMutability": "view",
      "type": "function",
      "constant": true
    },
    {
      "inputs": [],
      "name": "token1",
      "outputs": [
        {
          "internalType": "contract IERC20",
          "name": "",
          "type": "address"
        }
      ],
      "stateMutability": "view",
      "type": "function",
      "constant": true
    },
    {
      "inputs": [],
      "name": "totalSupply",
      "outputs": [
        {
          "internalType": "uint256",
          "name": "",
          "type": "uint256"
        }
      ],
      "stateMutability": "view",
      "type": "function",
      "constant": true
    },
    {
      "inputs": [
        {
          "internalType": "address",
          "name": "_tokenIn",
          "type": "address"
        },
        {
          "internalType": "uint256",
          "name": "_amountIn",
          "type": "uint256"
        }
      ],
      "name": "exchange_rate",
      "outputs": [
        {
          "internalType": "uint256",
          "name": "BigamountOut",
          "type": "uint256"
        }
      ],
      "stateMutability": "view",
      "type": "function",
      "constant": true
    },
    {
      "inputs": [],
      "name": "getpopularity",
      "outputs": [
        {
          "internalType": "uint256",
          "name": "",
          "type": "uint256"
        }
      ],
      "stateMutability": "view",
      "type": "function",
      "constant": true
    },
    {
      "inputs": [],
      "name": "getToken0",
      "outputs": [
        {
          "internalType": "contract IERC20",
          "name": "",
          "type": "address"
        }
      ],
      "stateMutability": "view",
      "type": "function",
      "constant": true
    },
    {
      "inputs": [],
      "name": "getToken1",
      "outputs": [
        {
          "internalType": "contract IERC20",
          "name": "",
          "type": "address"
        }
      ],
      "stateMutability": "view",
      "type": "function",
      "constant": true
    },
    {
      "inputs": [],
      "name": "getoperator",
      "outputs": [
        {
          "internalType": "address",
          "name": "",
          "type": "address"
        }
      ],
      "stateMutability": "view",
      "type": "function",
      "constant": true
    },
    {
      "inputs": [],
      "name": "getProtocoladdr",
      "outputs": [
        {
          "internalType": "address",
          "name": "",
          "type": "address"
        }
      ],
      "stateMutability": "view",
      "type": "function",
      "constant": true
    },
    {
      "inputs": [
        {
          "internalType": "address",
          "name": "addr",
          "type": "address"
        }
      ],
      "name": "getProtocoladdrBalance",
      "outputs": [
        {
          "internalType": "uint256",
          "name": "",
          "type": "uint256"
        }
      ],
      "stateMutability": "view",
      "type": "function",
      "constant": true
    },
    {
      "inputs": [
        {
          "internalType": "address",
          "name": "owner",
          "type": "address"
        },
        {
          "internalType": "address",
          "name": "spender",
          "type": "address"
        }
      ],
      "name": "getApproveToken0",
      "outputs": [
        {
          "internalType": "uint256",
          "name": "",
          "type": "uint256"
        }
      ],
      "stateMutability": "view",
      "type": "function",
      "constant": true
    },
    {
      "inputs": [
        {
          "internalType": "address",
          "name": "owner",
          "type": "address"
        },
        {
          "internalType": "address",
          "name": "spender",
          "type": "address"
        }
      ],
      "name": "getApproveToken1",
      "outputs": [
        {
          "internalType": "uint256",
          "name": "",
          "type": "uint256"
        }
      ],
      "stateMutability": "view",
      "type": "function",
      "constant": true
    },
    {
      "inputs": [],
      "name": "getreserveIn",
      "outputs": [
        {
          "internalType": "uint256",
          "name": "",
          "type": "uint256"
        }
      ],
      "stateMutability": "view",
      "type": "function",
      "constant": true
    },
    {
      "inputs": [],
      "name": "getreserveOut",
      "outputs": [
        {
          "internalType": "uint256",
          "name": "",
          "type": "uint256"
        }
      ],
      "stateMutability": "view",
      "type": "function",
      "constant": true
    },
    {
      "inputs": [],
      "name": "getlastamountIn",
      "outputs": [
        {
          "internalType": "uint256",
          "name": "",
          "type": "uint256"
        }
      ],
      "stateMutability": "view",
      "type": "function",
      "constant": true
    },
    {
      "inputs": [
        {
          "internalType": "address",
          "name": "_tokenIn",
          "type": "address"
        },
        {
          "internalType": "uint256",
          "name": "_amountIn",
          "type": "uint256"
        },
        {
          "internalType": "uint256",
          "name": "minDy",
          "type": "uint256"
        }
      ],
      "name": "swap",
      "outputs": [
        {
          "internalType": "uint256",
          "name": "amountOut",
          "type": "uint256"
        }
      ],
      "stateMutability": "nonpayable",
      "type": "function"
    },
    {
      "inputs": [
        {
          "internalType": "uint256",
          "name": "_amount0",
          "type": "uint256"
        },
        {
          "internalType": "uint256",
          "name": "_amount1",
          "type": "uint256"
        },
        {
          "internalType": "uint256",
          "name": "minShares",
          "type": "uint256"
        }
      ],
      "name": "addLiquidity",
      "outputs": [
        {
          "internalType": "uint256",
          "name": "shares",
          "type": "uint256"
        },
        {
          "internalType": "uint256",
          "name": "_totalSupply",
          "type": "uint256"
        }
      ],
      "stateMutability": "nonpayable",
      "type": "function"
    },
    {
      "inputs": [
        {
          "internalType": "uint256",
          "name": "_shares",
          "type": "uint256"
        },
        {
          "internalType": "uint256",
          "name": "_minAmountsOut0",
          "type": "uint256"
        },
        {
          "internalType": "uint256",
          "name": "_minAmountsOut1",
          "type": "uint256"
        }
      ],
      "name": "removeLiquidity",
      "outputs": [
        {
          "internalType": "uint256",
          "name": "amount0",
          "type": "uint256"
        },
        {
          "internalType": "uint256",
          "name": "amount1",
          "type": "uint256"
        }
      ],
      "stateMutability": "nonpayable",
      "type": "function"
    }
  ],
  "bytecode": "0x60c06040526509184e72a0006004556003600b546200001f91906200013b565b6009556101f4600a55620d2f00600b556001600c556005600d556001600e556064600f55600e54600f54620000559190620001b5565b601055620f42406011553480156200006c57600080fd5b506040516200282538038062002825833981810160405281019062000092919062000257565b8173ffffffffffffffffffffffffffffffffffffffff1660808173ffffffffffffffffffffffffffffffffffffffff16815250508073ffffffffffffffffffffffffffffffffffffffff1660a08173ffffffffffffffffffffffffffffffffffffffff168152505050506200029e565b6000819050919050565b7f4e487b7100000000000000000000000000000000000000000000000000000000600052601160045260246000fd5b6000620001488262000102565b9150620001558362000102565b9250828202620001658162000102565b915082820484148315176200017f576200017e6200010c565b5b5092915050565b7f4e487b7100000000000000000000000000000000000000000000000000000000600052601260045260246000fd5b6000620001c28262000102565b9150620001cf8362000102565b925082620001e257620001e162000186565b5b828204905092915050565b600080fd5b600073ffffffffffffffffffffffffffffffffffffffff82169050919050565b60006200021f82620001f2565b9050919050565b620002318162000212565b81146200023d57600080fd5b50565b600081519050620002518162000226565b92915050565b60008060408385031215620002715762000270620001ed565b5b6000620002818582860162000240565b9250506020620002948582860162000240565b9150509250929050565b60805160a0516124a462000381600039600081816104d90152818161086201528181610a5801528181610b0801528181610bbe01528181610cb101528181610e990152818161103c015281816111ab0152818161132201528181611390015281816115d9015261177501526000818161044601528181610484015281816105ee015281816107c1015281816109be01528181610c1301528181610dfa01528181610f4401528181610fe701528181611111015281816112c6015281816113430152818161136f0152818161153f015281816116a9015261174f01526124a46000f3fe608060405234801561001057600080fd5b50600436106101375760003560e01c80636f26a710116100b857806385df17d11161007c57806385df17d11461035a5780639f1d0f591461038a578063b93148a5146103ba578063ba94a315146103ea578063d21220a714610408578063d43df5101461042657610137565b80636f26a7101461029f57806370a08231146102bd57806370cda86c146102ed57806384ec563f1461030b578063857620e11461032957610137565b8063422f1043116100ff578063422f1043146101e4578063443cb4bc146102155780635398c7cf146102335780635a76f25e1461026357806369a994dd1461028157610137565b80630dfe16811461013c57806318160ddd1461015a5780631a30f1f414610178578063226e47171461019657806323ef579b146101b4575b600080fd5b610144610444565b6040516101519190611cfd565b60405180910390f35b610162610468565b60405161016f9190611d31565b60405180910390f35b61018061046e565b60405161018d9190611d6d565b60405180910390f35b61019e610476565b6040516101ab9190611d31565b60405180910390f35b6101ce60048036038101906101c99190611de5565b610480565b6040516101db9190611d31565b60405180910390f35b6101fe60048036038101906101f99190611e25565b6106b1565b60405161020c929190611e78565b60405180910390f35b61021d610afe565b60405161022a9190611d31565b60405180910390f35b61024d60048036038101906102489190611ea1565b610b04565b60405161025a9190611d31565b60405180910390f35b61026b610baa565b6040516102789190611d31565b60405180910390f35b610289610bb0565b6040516102969190611d31565b60405180910390f35b6102a7610bba565b6040516102b49190611cfd565b60405180910390f35b6102d760048036038101906102d29190611ee1565b610be2565b6040516102e49190611d31565b60405180910390f35b6102f5610bfa565b6040516103029190611d6d565b60405180910390f35b610313610c02565b6040516103209190611d31565b60405180910390f35b610343600480360381019061033e9190611e25565b610c0c565b604051610351929190611e78565b60405180910390f35b610374600480360381019061036f9190611ee1565b610f40565b6040516103819190611d31565b60405180910390f35b6103a4600480360381019061039f9190611f0e565b610fe3565b6040516103b19190611d31565b60405180910390f35b6103d460048036038101906103cf9190611ea1565b6116a5565b6040516103e19190611d31565b60405180910390f35b6103f261174b565b6040516103ff9190611cfd565b60405180910390f35b610410611773565b60405161041d9190611cfd565b60405180910390f35b61042e611797565b60405161043b9190611d31565b60405180910390f35b7f000000000000000000000000000000000000000000000000000000000000000081565b60025481565b600033905090565b6000600554905090565b60007f000000000000000000000000000000000000000000000000000000000000000073ffffffffffffffffffffffffffffffffffffffff168373ffffffffffffffffffffffffffffffffffffffff16148061052757507f000000000000000000000000000000000000000000000000000000000000000073ffffffffffffffffffffffffffffffffffffffff168373ffffffffffffffffffffffffffffffffffffffff16145b610566576040517f08c379a000000000000000000000000000000000000000000000000000000000815260040161055d90611fbe565b60405180910390fd5b600082116105a9576040517f08c379a00000000000000000000000000000000000000000000000000000000081526004016105a09061202a565b60405180910390fd5b6000826004546105b99190612079565b90506000601154600a54836105ce9190612079565b6105d891906120ea565b9050600081836105e8919061211b565b905060007f000000000000000000000000000000000000000000000000000000000000000073ffffffffffffffffffffffffffffffffffffffff168773ffffffffffffffffffffffffffffffffffffffff161490506000808261065057600154600054610657565b6000546001545b9150915060006004548261066b9190612079565b905060006004548461067d9190612079565b9050858161068b919061214f565b86836106979190612079565b6106a191906120ea565b9850505050505050505092915050565b6000806000805b60128054905081101561074e573373ffffffffffffffffffffffffffffffffffffffff16601282815481106106f0576106ef612183565b5b9060005260206000200160009054906101000a900473ffffffffffffffffffffffffffffffffffffffff1673ffffffffffffffffffffffffffffffffffffffff160361073b57600191505b8080610746906121b2565b9150506106b8565b5060001515811515036107bf576012339080600181540180825580915050600190039060005260206000200160009091909190916101000a81548173ffffffffffffffffffffffffffffffffffffffff021916908373ffffffffffffffffffffffffffffffffffffffff1602179055505b7f000000000000000000000000000000000000000000000000000000000000000073ffffffffffffffffffffffffffffffffffffffff166323b872dd3330896040518463ffffffff1660e01b815260040161081c939291906121fa565b6020604051808303816000875af115801561083b573d6000803e3d6000fd5b505050506040513d601f19601f8201168201806040525081019061085f9190612269565b507f000000000000000000000000000000000000000000000000000000000000000073ffffffffffffffffffffffffffffffffffffffff166323b872dd3330886040518463ffffffff1660e01b81526004016108bd939291906121fa565b6020604051808303816000875af11580156108dc573d6000803e3d6000fd5b505050506040513d601f19601f820116820180604052508101906109009190612269565b506000600254036109265761091f858761091a9190612079565b6117a1565b9250610967565b6109646000546002548861093a9190612079565b61094491906120ea565b600154600254886109559190612079565b61095f91906120ea565b61181b565b92505b838310156109aa576040517f08c379a00000000000000000000000000000000000000000000000000000000081526004016109a1906122e2565b60405180910390fd5b6109b43384611835565b6002549150610af57f000000000000000000000000000000000000000000000000000000000000000073ffffffffffffffffffffffffffffffffffffffff166370a08231306040518263ffffffff1660e01b8152600401610a159190611d6d565b602060405180830381865afa158015610a32573d6000803e3d6000fd5b505050506040513d601f19601f82011682018060405250810190610a569190612317565b7f000000000000000000000000000000000000000000000000000000000000000073ffffffffffffffffffffffffffffffffffffffff166370a08231306040518263ffffffff1660e01b8152600401610aaf9190611d6d565b602060405180830381865afa158015610acc573d6000803e3d6000fd5b505050506040513d601f19601f82011682018060405250810190610af09190612317565b6118a8565b50935093915050565b60005481565b60007f000000000000000000000000000000000000000000000000000000000000000073ffffffffffffffffffffffffffffffffffffffff1663dd62ed3e84846040518363ffffffff1660e01b8152600401610b61929190612344565b602060405180830381865afa158015610b7e573d6000803e3d6000fd5b505050506040513d601f19601f82011682018060405250810190610ba29190612317565b905092915050565b60015481565b6000600a54905090565b60007f0000000000000000000000000000000000000000000000000000000000000000905090565b60036020528060005260406000206000915090505481565b600030905090565b6000600654905090565b60008060007f000000000000000000000000000000000000000000000000000000000000000073ffffffffffffffffffffffffffffffffffffffff166370a08231306040518263ffffffff1660e01b8152600401610c6a9190611d6d565b602060405180830381865afa158015610c87573d6000803e3d6000fd5b505050506040513d601f19601f82011682018060405250810190610cab9190612317565b905060007f000000000000000000000000000000000000000000000000000000000000000073ffffffffffffffffffffffffffffffffffffffff166370a08231306040518263ffffffff1660e01b8152600401610d089190611d6d565b602060405180830381865afa158015610d25573d6000803e3d6000fd5b505050506040513d601f19601f82011682018060405250810190610d499190612317565b90506002548288610d5a9190612079565b610d6491906120ea565b93506002548188610d759190612079565b610d7f91906120ea565b92508584118015610d8f57508483115b610dce576040517f08c379a0000000000000000000000000000000000000000000000000000000008152600401610dc5906123b9565b60405180910390fd5b610dd833886118ba565b610df88483610de7919061211b565b8483610df3919061211b565b6118a8565b7f000000000000000000000000000000000000000000000000000000000000000073ffffffffffffffffffffffffffffffffffffffff1663a9059cbb33866040518363ffffffff1660e01b8152600401610e539291906123d9565b6020604051808303816000875af1158015610e72573d6000803e3d6000fd5b505050506040513d601f19601f82011682018060405250810190610e969190612269565b507f000000000000000000000000000000000000000000000000000000000000000073ffffffffffffffffffffffffffffffffffffffff1663a9059cbb33856040518363ffffffff1660e01b8152600401610ef29291906123d9565b6020604051808303816000875af1158015610f11573d6000803e3d6000fd5b505050506040513d601f19601f82011682018060405250810190610f359190612269565b505050935093915050565b60007f000000000000000000000000000000000000000000000000000000000000000073ffffffffffffffffffffffffffffffffffffffff166370a08231836040518263ffffffff1660e01b8152600401610f9b9190611d6d565b602060405180830381865afa158015610fb8573d6000803e3d6000fd5b505050506040513d601f19601f82011682018060405250810190610fdc9190612317565b9050919050565b60007f000000000000000000000000000000000000000000000000000000000000000073ffffffffffffffffffffffffffffffffffffffff168473ffffffffffffffffffffffffffffffffffffffff16148061108a57507f000000000000000000000000000000000000000000000000000000000000000073ffffffffffffffffffffffffffffffffffffffff168473ffffffffffffffffffffffffffffffffffffffff16145b6110c9576040517f08c379a00000000000000000000000000000000000000000000000000000000081526004016110c090611fbe565b60405180910390fd5b6000831161110c576040517f08c379a00000000000000000000000000000000000000000000000000000000081526004016111039061202a565b60405180910390fd5b6112487f000000000000000000000000000000000000000000000000000000000000000073ffffffffffffffffffffffffffffffffffffffff166370a08231306040518263ffffffff1660e01b81526004016111689190611d6d565b602060405180830381865afa158015611185573d6000803e3d6000fd5b505050506040513d601f19601f820116820180604052508101906111a99190612317565b7f000000000000000000000000000000000000000000000000000000000000000073ffffffffffffffffffffffffffffffffffffffff166370a08231306040518263ffffffff1660e01b81526004016112029190611d6d565b602060405180830381865afa15801561121f573d6000803e3d6000fd5b505050506040513d601f19601f820116820180604052508101906112439190612317565b6118a8565b60085442611256919061211b565b600981905550600b54600954111561127e576003600b546112779190612079565b6009819055505b4260088190555061128d61192d565b600a819055506000601154600a54856112a69190612079565b6112b091906120ea565b9050600081856112c0919061211b565b905060007f000000000000000000000000000000000000000000000000000000000000000073ffffffffffffffffffffffffffffffffffffffff168773ffffffffffffffffffffffffffffffffffffffff161490506000806000808461136d577f00000000000000000000000000000000000000000000000000000000000000007f00000000000000000000000000000000000000000000000000000000000000006001546000546113b6565b7f00000000000000000000000000000000000000000000000000000000000000007f00000000000000000000000000000000000000000000000000000000000000006000546001545b93509350935093508373ffffffffffffffffffffffffffffffffffffffff166323b872dd33308d6040518463ffffffff1660e01b81526004016113fb939291906121fa565b6020604051808303816000875af115801561141a573d6000803e3d6000fd5b505050506040513d601f19601f8201168201806040525081019061143e9190612269565b50858261144b919061214f565b86826114579190612079565b61146191906120ea565b9750888810156114a6576040517f08c379a000000000000000000000000000000000000000000000000000000000815260040161149d9061244e565b60405180910390fd5b8273ffffffffffffffffffffffffffffffffffffffff1663a9059cbb338a6040518363ffffffff1660e01b81526004016114e19291906123d9565b6020604051808303816000875af1158015611500573d6000803e3d6000fd5b505050506040513d601f19601f820116820180604052508101906115249190612269565b508160058190555080600681905550896007819055506116767f000000000000000000000000000000000000000000000000000000000000000073ffffffffffffffffffffffffffffffffffffffff166370a08231306040518263ffffffff1660e01b81526004016115969190611d6d565b602060405180830381865afa1580156115b3573d6000803e3d6000fd5b505050506040513d601f19601f820116820180604052508101906115d79190612317565b7f000000000000000000000000000000000000000000000000000000000000000073ffffffffffffffffffffffffffffffffffffffff166370a08231306040518263ffffffff1660e01b81526004016116309190611d6d565b602060405180830381865afa15801561164d573d6000803e3d6000fd5b505050506040513d601f19601f820116820180604052508101906116719190612317565b6118a8565b61169784600a8961168791906120ea565b89611692919061211b565b6119a8565b505050505050509392505050565b60007f000000000000000000000000000000000000000000000000000000000000000073ffffffffffffffffffffffffffffffffffffffff1663dd62ed3e84846040518363ffffffff1660e01b8152600401611702929190612344565b602060405180830381865afa15801561171f573d6000803e3d6000fd5b505050506040513d601f19601f820116820180604052508101906117439190612317565b905092915050565b60007f0000000000000000000000000000000000000000000000000000000000000000905090565b7f000000000000000000000000000000000000000000000000000000000000000081565b6000600754905090565b6000600382111561180857819050600060016002846117c091906120ea565b6117ca919061214f565b90505b818110156118025780915060028182856117e791906120ea565b6117f1919061214f565b6117fb91906120ea565b90506117cd565b50611816565b6000821461181557600190505b5b919050565b60008183111561182b578161182d565b825b905092915050565b80600360008473ffffffffffffffffffffffffffffffffffffffff1673ffffffffffffffffffffffffffffffffffffffff1681526020019081526020016000206000828254611884919061214f565b92505081905550806002600082825461189d919061214f565b925050819055505050565b81600081905550806001819055505050565b80600360008473ffffffffffffffffffffffffffffffffffffffff1673ffffffffffffffffffffffffffffffffffffffff1681526020019081526020016000206000828254611909919061211b565b925050819055508060026000828254611922919061211b565b925050819055505050565b60008060095490506000600d54905060006119488383611b22565b90506000600a82604661195b9190612079565b600a54600361196a9190612079565b611974919061214f565b61197e91906120ea565b90506103e7811115611990576103e790505b606481101561199e57606490505b8094505050505090565b60005b601280549050811015611b1d578273ffffffffffffffffffffffffffffffffffffffff1663a9059cbb601283815481106119e8576119e7612183565b5b9060005260206000200160009054906101000a900473ffffffffffffffffffffffffffffffffffffffff166002546003600060128781548110611a2e57611a2d612183565b5b9060005260206000200160009054906101000a900473ffffffffffffffffffffffffffffffffffffffff1673ffffffffffffffffffffffffffffffffffffffff1673ffffffffffffffffffffffffffffffffffffffff1681526020019081526020016000205486611a9f9190612079565b611aa991906120ea565b6040518363ffffffff1660e01b8152600401611ac69291906123d9565b6020604051808303816000875af1158015611ae5573d6000803e3d6000fd5b505050506040513d601f19601f82011682018060405250810190611b099190612269565b508080611b15906121b2565b9150506119ab565b505050565b60008069152d02c7e14af68000009050600084600e54611b429190612079565b9050600084905060006004546001611b5a9190612079565b90506000600190506000600190506000600290505b600f811015611c48578583611b849190612079565b9250808583611b939190612079565b611b9d9190612079565b91508160045484611bae9190612079565b10611c48578160045484611bc29190612079565b611bcc91906120ea565b84611bd7919061214f565b93508683118015611be757508682115b15611c13576402540be40083611bfd91906120ea565b92506402540be40082611c1091906120ea565b91505b6004546064600e54611c259190612079565b611c2f9190612079565b8411611c48578080611c40906121b2565b915050611b6f565b50826004546064600e54611c5c9190612079565b611c669190612079565b611c7091906120ea565b965050505050505092915050565b600073ffffffffffffffffffffffffffffffffffffffff82169050919050565b6000819050919050565b6000611cc3611cbe611cb984611c7e565b611c9e565b611c7e565b9050919050565b6000611cd582611ca8565b9050919050565b6000611ce782611cca565b9050919050565b611cf781611cdc565b82525050565b6000602082019050611d126000830184611cee565b92915050565b6000819050919050565b611d2b81611d18565b82525050565b6000602082019050611d466000830184611d22565b92915050565b6000611d5782611c7e565b9050919050565b611d6781611d4c565b82525050565b6000602082019050611d826000830184611d5e565b92915050565b600080fd5b611d9681611d4c565b8114611da157600080fd5b50565b600081359050611db381611d8d565b92915050565b611dc281611d18565b8114611dcd57600080fd5b50565b600081359050611ddf81611db9565b92915050565b60008060408385031215611dfc57611dfb611d88565b5b6000611e0a85828601611da4565b9250506020611e1b85828601611dd0565b9150509250929050565b600080600060608486031215611e3e57611e3d611d88565b5b6000611e4c86828701611dd0565b9350506020611e5d86828701611dd0565b9250506040611e6e86828701611dd0565b9150509250925092565b6000604082019050611e8d6000830185611d22565b611e9a6020830184611d22565b9392505050565b60008060408385031215611eb857611eb7611d88565b5b6000611ec685828601611da4565b9250506020611ed785828601611da4565b9150509250929050565b600060208284031215611ef757611ef6611d88565b5b6000611f0584828501611da4565b91505092915050565b600080600060608486031215611f2757611f26611d88565b5b6000611f3586828701611da4565b9350506020611f4686828701611dd0565b9250506040611f5786828701611dd0565b9150509250925092565b600082825260208201905092915050565b7f696e76616c696420746f6b656e00000000000000000000000000000000000000600082015250565b6000611fa8600d83611f61565b9150611fb382611f72565b602082019050919050565b60006020820190508181036000830152611fd781611f9b565b9050919050565b7f616d6f756e7420696e203d203000000000000000000000000000000000000000600082015250565b6000612014600d83611f61565b915061201f82611fde565b602082019050919050565b6000602082019050818103600083015261204381612007565b9050919050565b7f4e487b7100000000000000000000000000000000000000000000000000000000600052601160045260246000fd5b600061208482611d18565b915061208f83611d18565b925082820261209d81611d18565b915082820484148315176120b4576120b361204a565b5b5092915050565b7f4e487b7100000000000000000000000000000000000000000000000000000000600052601260045260246000fd5b60006120f582611d18565b915061210083611d18565b9250826121105761210f6120bb565b5b828204905092915050565b600061212682611d18565b915061213183611d18565b92508282039050818111156121495761214861204a565b5b92915050565b600061215a82611d18565b915061216583611d18565b925082820190508082111561217d5761217c61204a565b5b92915050565b7f4e487b7100000000000000000000000000000000000000000000000000000000600052603260045260246000fd5b60006121bd82611d18565b91507fffffffffffffffffffffffffffffffffffffffffffffffffffffffffffffffff82036121ef576121ee61204a565b5b600182019050919050565b600060608201905061220f6000830186611d5e565b61221c6020830185611d5e565b6122296040830184611d22565b949350505050565b60008115159050919050565b61224681612231565b811461225157600080fd5b50565b6000815190506122638161223d565b92915050565b60006020828403121561227f5761227e611d88565b5b600061228d84828501612254565b91505092915050565b7f736861726573203c206d696e0000000000000000000000000000000000000000600082015250565b60006122cc600c83611f61565b91506122d782612296565b602082019050919050565b600060208201905081810360008301526122fb816122bf565b9050919050565b60008151905061231181611db9565b92915050565b60006020828403121561232d5761232c611d88565b5b600061233b84828501612302565b91505092915050565b60006040820190506123596000830185611d5e565b6123666020830184611d5e565b9392505050565b7f616d6f756e7430206f7220616d6f756e7431203d203000000000000000000000600082015250565b60006123a3601683611f61565b91506123ae8261236d565b602082019050919050565b600060208201905081810360008301526123d281612396565b9050919050565b60006040820190506123ee6000830185611d5e565b6123fb6020830184611d22565b9392505050565b7f6479203c206d696e000000000000000000000000000000000000000000000000600082015250565b6000612438600883611f61565b915061244382612402565b602082019050919050565b600060208201905081810360008301526124678161242b565b905091905056fea26469706673582212200a1a7d81b676ed8c17f85abc92eb4c3cf319f67acb1652490e0a2f6f54c1d70d64736f6c63430008130033",
  "immutableReferences": {
    "4": [
      {
        "length": 32,
        "start": 1094
      },
      {
        "length": 32,
        "start": 1156
      },
      {
        "length": 32,
        "start": 1518
      },
      {
        "length": 32,
        "start": 1985
      },
      {
        "length": 32,
        "start": 2494
      },
      {
        "length": 32,
        "start": 3091
      },
      {
        "length": 32,
        "start": 3578
      },
      {
        "length": 32,
        "start": 3908
      },
      {
        "length": 32,
        "start": 4071
      },
      {
        "length": 32,
        "start": 4369
      },
      {
        "length": 32,
        "start": 4806
      },
      {
        "length": 32,
        "start": 4931
      },
      {
        "length": 32,
        "start": 4975
      },
      {
        "length": 32,
        "start": 5439
      },
      {
        "length": 32,
        "start": 5801
      },
      {
        "length": 32,
        "start": 5967
      }
    ],
    "7": [
      {
        "length": 32,
        "start": 1241
      },
      {
        "length": 32,
        "start": 2146
      },
      {
        "length": 32,
        "start": 2648
      },
      {
        "length": 32,
        "start": 2824
      },
      {
        "length": 32,
        "start": 3006
      },
      {
        "length": 32,
        "start": 3249
      },
      {
        "length": 32,
        "start": 3737
      },
      {
        "length": 32,
        "start": 4156
      },
      {
        "length": 32,
        "start": 4523
      },
      {
        "length": 32,
        "start": 4898
      },
      {
        "length": 32,
        "start": 5008
      },
      {
        "length": 32,
        "start": 5593
      },
      {
        "length": 32,
        "start": 6005
      }
    ]
  },
  "source": "// SPDX-License-Identifier: MIT\npragma solidity ^0.8.19;\n\n// getLogm(), calculatepopularity()\n// addLiqudity(), swap()\ncontract CPAMM {\n    IERC20 public immutable token0;\n    IERC20 public immutable token1;\n\n    uint256 public reserve0;\n    uint256 public reserve1;\n    uint256 public totalSupply;\n    mapping(address => uint256) public balanceOf;\n\n    ////////////////////////////////////////////////////////////////////////////////////////////////////////////////////////\n        // 0. ERC20 base feature\n    ////////////////////////////////////////////////////////////////////////////////////////////////////////////////////////\n\n    constructor(address _token0, address _token1) {\n        token0 = IERC20(_token0);\n        token1 = IERC20(_token1);\n    }\n\n    function _mint(address _to, uint256 _amount) private {\n        balanceOf[_to] += _amount;\n        totalSupply += _amount;\n    }\n\n    function _burn(address _from, uint256 _amount) private {\n        balanceOf[_from] -= _amount;\n        totalSupply -= _amount;\n    }\n\n    function _update(uint256 _reserve0, uint256 _reserve1) private {\n        reserve0 = _reserve0;\n        reserve1 = _reserve1;\n    }\n\n\n    ////////////////////////////////////////////////////////////////////////////////////////////////////////////////////////\n        // 1.  external\n    ////////////////////////////////////////////////////////////////////////////////////////////////////////////////////////\n\n    // precise exchange rate * 1e13 (Big exchange rate)\n    uint256 private floatingPointPrecision = 1e13;\n    function exchange_rate(address _tokenIn, uint256 _amountIn)\n        external view\n        returns (uint256 BigamountOut)\n    {\n        require( _tokenIn == address(token0) || _tokenIn == address(token1), \"invalid token\");\n        require(_amountIn > 0, \"amount in = 0\");\n\n        uint256 BigAmountIn = floatingPointPrecision * _amountIn;\n\n        uint256 Bigfee = BigAmountIn* lastPopularity / popularity_precision;\n        uint256 BigamountInWithFee = BigAmountIn - Bigfee;    // deduct fee\n\n        //0110\n        bool isToken0 = _tokenIn == address(token0);\n        (uint256 reserveIn, uint256 reserveOut)\n        = isToken0\n            ? (reserve0, reserve1)\n            : (reserve1, reserve0);\n\n        uint256 BigreserveOut = reserveOut * floatingPointPrecision;\n        uint256 BigreserveIn = reserveIn * floatingPointPrecision;\n\n        BigamountOut =(BigreserveOut * BigamountInWithFee) / (BigreserveIn + BigamountInWithFee);   // BigamountOut = precise exchange rate * 1e13\n        return BigamountOut;\n    }\n\n    function getpopularity() public view returns(uint256){\n        return lastPopularity;\n    }\n\n    function getToken0() external view returns(IERC20){return token0;}\n    function getToken1() external view returns(IERC20){return token1;}\n    function getoperator() external view returns(address){return msg.sender;}\n    function getProtocoladdr() external view returns(address){return address(this);}\n    function getProtocoladdrBalance(address addr) external view returns(uint256){return token0.balanceOf(addr);}\n    function getApproveToken0(address owner, address spender)external view returns(uint256){return token0.allowance(owner,spender);}\n    function getApproveToken1(address owner, address spender)external view returns(uint256){return token1.allowance(owner,spender);}\n\n    uint256 tmp_reserveIn;\n    function getreserveIn()external view returns(uint256){return tmp_reserveIn;}\n\n    uint256 tmp_reserveOut;\n    function getreserveOut()external view returns(uint256){return tmp_reserveOut;}\n\n    uint256 tmp_amountIn;\n    function getlastamountIn()external view returns(uint256){return tmp_amountIn;}\n\n    ////////////////////////////////////////////////////////////////////////////////////////////////////////////////////////\n        // 2. popularity()\n    ////////////////////////////////////////////////////////////////////////////////////////////////////////////////////////\n\n    uint256 private lastSwapTimestamp;      //\n    uint256 private lastDeltaT=MaxDeltaT * 3;\n    uint256 private lastPopularity = 500;   //\n\n\n    // swapcalculateFee\n    uint256 private MaxDeltaT = 10 * 24 * 3600; //  1s - 10 * 24 * 3600 \n    uint256 private MinDeltaT = 1;\n    // uint256 divisions = 10;\n    // uint256 interval = (MaxDeltaT-MinDeltaT-1)/divisions;\n    uint256 private interval = 5;\n\n    uint256 private exponent_numbda = 1;\n    uint256 private MaxTimefactor = 100;\n    uint256 private y_parameter = MaxTimefactor / exponent_numbda;  // exponent_numbda\n\n    //  f(x;numda)=numba * e^(-numda*x) = numbda * 1 / (e^[numbda*x])   numbda*x = p\n    // e^p = 1+ p^2/1*2 + p^3/1*2*3 + ... + p^i / i!\n    function calculate_Timefactor(uint256 x_numerator, uint256 x_denominator)private view returns(uint256){    \n        // uint256 e = 27182818284590;    // e * floatingPointPrecision\n        uint256 Maxnum = 1e23;\n\n        // uint256 p = numbda * x ;\n        uint256 p_numerator = exponent_numbda * x_numerator;\n        uint256 p_denominator = x_denominator;\n\n        // e^p = 1+ p^2/1*2 + p^3/1*2*3 + ... + p^i / i!\n        uint256 eP = 1 * floatingPointPrecision;\n\n        uint256 item_numerator = 1;\n        uint256 item_denominator = 1;\n\n        for (uint256 i=2;i<15;i++){\n            item_numerator = item_numerator * p_numerator;\n            item_denominator = item_denominator * p_denominator * i;\n            if (item_numerator * floatingPointPrecision < item_denominator)break;\n            eP = eP + item_numerator * floatingPointPrecision / item_denominator;\n            if (item_numerator > Maxnum && item_denominator > Maxnum){\n                item_numerator = item_numerator / 1e10;\n                item_denominator = item_denominator / 1e10;\n            }\n            if (eP > exponent_numbda * 100 * floatingPointPrecision)break;\n        }\n\n        return exponent_numbda * 100 * floatingPointPrecision/ eP;\n        \n    }\n\n\n    uint256 popularity_precision = 1e6;\n\n    function calculatepopularity() private view returns (uint256) {\n        uint256 _deltaT = lastDeltaT;\n        uint256 _interval = interval;\n        uint256 TimeFactor= calculate_Timefactor(_deltaT, _interval);   // [0,100] %%\n\n        //popularity [0,1000]\n        uint256 popularity = (3 * lastPopularity + 70 * TimeFactor)/10;\n\n        if (popularity>999)popularity = 999;    //    1%\n        if (popularity<100)popularity = 100;    //// 0.1%\n        return popularity;\n    }\n    \n\n    ////////////////////////////////////////////////////////////////////////////////////////////////////////////////////////\n        // 3. CPAMM dy\n    ////////////////////////////////////////////////////////////////////////////////////////////////////////////////////////\n\n    function _sqrt(uint256 y) private pure returns (uint256 z) {\n        if (y > 3) {\n            z = y;\n            uint256 x = y / 2 + 1;\n            while (x < z) {\n                z = x;\n                x = (y / x + x) / 2;\n            }\n        } else if (y != 0) {\n            z = 1;\n        }\n    }\n\n    function _min(uint256 x, uint256 y) private pure returns (uint256) {\n        return x <= y ? x : y;\n    }\n\n\n    ////////////////////////////////////////////////////////////////////////////////////////////////////////////////////////\n        // 4. CPAMM swap\n    ////////////////////////////////////////////////////////////////////////////////////////////////////////////////////////\n\n    function dispense_fee_to_LPProvider(IERC20 tokenIn, uint256 fee) private {\n        for (uint k=0;k<LPprovider.length;k++){\n           IERC20(tokenIn).transfer(LPprovider[k], fee * balanceOf[LPprovider[k]]/ totalSupply);\n        }\n    }\n    \n    function swap(address _tokenIn, uint256 _amountIn, uint256 minDy)\n        external\n        returns (uint256 amountOut)\n    {\n        require( _tokenIn == address(token0) || _tokenIn == address(token1), \"invalid token\");\n        require(_amountIn > 0, \"amount in = 0\");\n\n        _update(token0.balanceOf(address(this)), token1.balanceOf(address(this)));\n\n        \n        lastDeltaT = block.timestamp - lastSwapTimestamp;   // \n        if (lastDeltaT > MaxDeltaT) lastDeltaT = MaxDeltaT * 3;\n        lastSwapTimestamp = block.timestamp;\n        lastPopularity = calculatepopularity(); // Popularity\n\n        uint256 fee = _amountIn* lastPopularity / popularity_precision;\n        uint256 _amountInWithFee = _amountIn - fee;    // deduct fee\n\n        //0110\n        bool isToken0 = _tokenIn == address(token0);\n        (IERC20 tokenIn, IERC20 tokenOut, uint256 reserveIn, uint256 reserveOut)\n        = isToken0\n            ? (token0, token1, reserve0, reserve1)\n            : (token1, token0, reserve1, reserve0);\n\n        IERC20(tokenIn).transferFrom(msg.sender, address(this), _amountIn);\n\n        amountOut =(reserveOut * _amountInWithFee) / (reserveIn + _amountInWithFee);\n\n        require(amountOut >= minDy, \"dy < min\");\n        tokenOut.transfer(msg.sender, amountOut);\n\n        // record parameters\n        tmp_reserveIn = reserveIn;\n        tmp_reserveOut = reserveOut;\n        tmp_amountIn=_amountIn;\n\n        _update(\n            token0.balanceOf(address(this)), token1.balanceOf(address(this))\n        );\n\n        // feeLP provider\n        dispense_fee_to_LPProvider(tokenIn, fee - fee/10);  //deduct 10% fee for CPAMM\n    }\n\n\n    ////////////////////////////////////////////////////////////////////////////////////////////////////////////////////////\n        // 5. CPAMM add liquidityremove liquidity\n    ////////////////////////////////////////////////////////////////////////////////////////////////////////////////////////\n    \n    address[] private LPprovider;\n    \n    function addLiquidity(uint256 _amount0, uint256 _amount1, uint256 minShares)\n        external\n        returns (uint256 shares, uint256 _totalSupply)\n    {\n\n        bool flag=false;\n        for (uint i=0;i<LPprovider.length;i++){\n            if (LPprovider[i]==msg.sender)flag=true;\n        }\n        if (flag==false)LPprovider.push(msg.sender);\n\n\n        // add liquidity\n        token0.transferFrom(msg.sender, address(this), _amount0);\n        token1.transferFrom(msg.sender, address(this), _amount1);\n\n        if (totalSupply == 0) {\n            shares = _sqrt(_amount0 * _amount1);\n        } else {\n            shares = _min(\n                (_amount0 * totalSupply) / reserve0,\n                (_amount1 * totalSupply) / reserve1\n            );\n        }\n        require(shares >= minShares, \"shares < min\");\n        _mint(msg.sender, shares);\n\n        _totalSupply = totalSupply;\n\n        _update(token0.balanceOf(address(this)), token1.balanceOf(address(this)));\n    }\n\n    function removeLiquidity(uint256 _shares, \n        uint256 _minAmountsOut0,\n        uint256 _minAmountsOut1)\n        external\n        returns (uint256 amount0, uint256 amount1)\n    {\n\n        uint256 bal0 = token0.balanceOf(address(this));\n        uint256 bal1 = token1.balanceOf(address(this));\n\n        amount0 = (_shares * bal0) / totalSupply;\n        amount1 = (_shares * bal1) / totalSupply;\n        require(amount0 > _minAmountsOut0 && amount1 > _minAmountsOut1, \"amount0 or amount1 = 0\");\n\n        _burn(msg.sender, _shares);\n        _update(bal0 - amount0, bal1 - amount1);\n\n        token0.transfer(msg.sender, amount0);\n        token1.transfer(msg.sender, amount1);\n    }\n\n}\n\n\ninterface IERC20 {\n    function totalSupply() external view returns (uint256);\n    function balanceOf(address account) external view returns (uint256);\n    function transfer(address recipient, uint256 amount)\n        external\n        returns (bool);\n    function allowance(address owner, address spender)\n        external\n        view\n        returns (uint256);\n    function approve(address spender, uint256 amount) external returns (bool);\n    function transferFrom(address sender, address recipient, uint256 amount)\n        external\n        returns (bool);\n    \n}\n\n\ncontract ERC20Token0_CPAMM is IERC20 {\n    event Transfer(address indexed from, address indexed to, uint256 value);\n    event Approval(\n        address indexed owner, address indexed spender, uint256 value\n    );\n\n    uint256 public totalSupply;\n    mapping(address => uint256) public balanceOf;\n    mapping(address => mapping(address => uint256)) public allowance;\n    string public name;\n    string public symbol;\n    uint8 public decimals;\n\n    constructor(string memory _name, string memory _symbol, uint8 _decimals) {      //:whatever    //10**decimals\n        name = _name;\n        symbol = _symbol;\n        decimals = _decimals;\n    }\n\n    function transfer(address recipient, uint256 amount)\n        external\n        returns (bool)\n    {\n        balanceOf[msg.sender] -= amount;\n        balanceOf[recipient] += amount;\n        emit Transfer(msg.sender, recipient, amount);\n        return true;\n    }\n\n    function approve(address spender, uint256 amount) external returns (bool) {\n        allowance[msg.sender][spender] = amount;\n        emit Approval(msg.sender, spender, amount);\n        return true;\n    }\n\n    function transferFrom(address sender, address recipient, uint256 amount)\n        external\n        returns (bool)\n    {\n        allowance[sender][msg.sender] -= amount;\n        balanceOf[sender] -= amount;\n        balanceOf[recipient] += amount;\n        emit Transfer(sender, recipient, amount);\n        return true;\n    }\n\n    function _mint(address to, uint256 amount) internal {\n        balanceOf[to] += amount;\n        totalSupply += amount;\n        emit Transfer(address(0), to, amount);\n    }\n\n    function _burn(address from, uint256 amount) internal {\n        balanceOf[from] -= amount;\n        totalSupply -= amount;\n        emit Transfer(from, address(0), amount);\n    }\n\n    function mint(address to, uint256 amount) external {\n        _mint(to, amount);\n    }\n\n    function burn(address from, uint256 amount) external {\n        _burn(from, amount);\n    }\n\n}\n\n\ncontract ERC20Token1_CPAMM is IERC20 {\n    event Transfer(address indexed from, address indexed to, uint256 value);\n    event Approval(\n        address indexed owner, address indexed spender, uint256 value\n    );\n\n    uint256 public totalSupply;\n    mapping(address => uint256) public balanceOf;\n    mapping(address => mapping(address => uint256)) public allowance;\n    string public name;\n    string public symbol;\n    uint8 public decimals;\n\n    constructor(string memory _name, string memory _symbol, uint8 _decimals) {      //:whatever    //10**decimals\n        name = _name;\n        symbol = _symbol;\n        decimals = _decimals;\n    }\n\n    function transfer(address recipient, uint256 amount)\n        external\n        returns (bool)\n    {\n        balanceOf[msg.sender] -= amount;\n        balanceOf[recipient] += amount;\n        emit Transfer(msg.sender, recipient, amount);\n        return true;\n    }\n\n    function approve(address spender, uint256 amount) external returns (bool) {\n        allowance[msg.sender][spender] = amount;\n        emit Approval(msg.sender, spender, amount);\n        return true;\n    }\n\n    function transferFrom(address sender, address recipient, uint256 amount)\n        external\n        returns (bool)\n    {\n        allowance[sender][msg.sender] -= amount;\n        balanceOf[sender] -= amount;\n        balanceOf[recipient] += amount;\n        emit Transfer(sender, recipient, amount);\n        return true;\n    }\n\n    function _mint(address to, uint256 amount) internal {\n        balanceOf[to] += amount;\n        totalSupply += amount;\n        emit Transfer(address(0), to, amount);\n    }\n\n    function _burn(address from, uint256 amount) internal {\n        balanceOf[from] -= amount;\n        totalSupply -= amount;\n        emit Transfer(from, address(0), amount);\n    }\n\n    function mint(address to, uint256 amount) external {\n        _mint(to, amount);\n    }\n\n    function burn(address from, uint256 amount) external {\n        _burn(from, amount);\n    }\n\n}\n",
  "sourcePath": "D:\\CODE_storage\\solidity\\DeFi-sol-test\\contracts\\CPAMMv7.sol",
  "compiler": {
    "name": "solc",
    "version": "0.8.19+commit.7dd6d404.Emscripten.clang"
  },
  "schemaVersion": "3.4.16",
  "updatedAt": "2024-04-21T14:16:45.536Z",
  "networkType": "ethereum",
  "devdoc": {
    "kind": "dev",
    "methods": {},
    "version": 1
  },
  "userdoc": {
    "kind": "user",
    "methods": {},
    "version": 1
  }
}